{
  "contractName": "CrowdvillaTokenSale",
  "abi": [
    {
      "constant": true,
      "inputs": [
        {
          "name": "",
          "type": "address"
        },
        {
          "name": "",
          "type": "uint256"
        }
      ],
      "name": "totalFund",
      "outputs": [
        {
          "name": "",
          "type": "uint256"
        }
      ],
      "payable": false,
      "stateMutability": "view",
      "type": "function"
    },
    {
      "constant": true,
      "inputs": [
        {
          "name": "",
          "type": "address"
        },
        {
          "name": "",
          "type": "uint256"
        }
      ],
      "name": "contributions",
      "outputs": [
        {
          "name": "",
          "type": "uint256"
        }
      ],
      "payable": false,
      "stateMutability": "view",
      "type": "function"
    },
    {
      "constant": true,
      "inputs": [
        {
          "name": "",
          "type": "address"
        }
      ],
      "name": "contributorIndex",
      "outputs": [
        {
          "name": "",
          "type": "uint256"
        }
      ],
      "payable": false,
      "stateMutability": "view",
      "type": "function"
    },
    {
      "payable": false,
      "stateMutability": "view",
      "type": "function",
      "constant": true,
      "inputs": [],
      "name": "getPromisedTokenBalance",
      "outputs": [
        {
          "name": "",
          "type": "uint256"
        }
      ]
    },
    {
      "constant": true,
      "inputs": [
        {
          "name": "",
          "type": "uint256"
        }
      ],
      "name": "reversedContributorIndex",
      "outputs": [
        {
          "name": "",
          "type": "address"
        }
      ],
      "payable": false,
      "stateMutability": "view",
      "type": "function"
    },
    {
      "constant": true,
      "inputs": [],
      "name": "currentStretchGoal",
      "outputs": [
        {
          "name": "",
          "type": "uint256"
        }
      ],
      "payable": false,
      "stateMutability": "view",
      "type": "function"
    },
    {
      "constant": true,
      "inputs": [],
      "name": "recvPerEth",
      "outputs": [
        {
          "name": "",
          "type": "uint256"
        }
      ],
      "payable": false,
      "stateMutability": "view",
      "type": "function"
    },
    {
      "constant": true,
      "inputs": [
        {
          "name": "",
          "type": "uint256"
        }
      ],
      "name": "stretchGoals",
      "outputs": [
        {
          "name": "",
          "type": "uint256"
        }
      ],
      "payable": false,
      "stateMutability": "view",
      "type": "function"
    },
    {
      "constant": true,
      "inputs": [],
      "name": "uniqueContributors",
      "outputs": [
        {
          "name": "",
          "type": "uint256"
        }
      ],
      "payable": false,
      "stateMutability": "view",
      "type": "function"
    },
    {
      "payable": true,
      "stateMutability": "payable",
      "type": "fallback"
    },
    {
      "anonymous": false,
      "inputs": [
        {
          "indexed": true,
          "name": "contributor",
          "type": "address"
        },
        {
          "indexed": false,
          "name": "amount",
          "type": "uint256"
        }
      ],
      "name": "Contribute",
      "type": "event"
    }
  ],
  "bytecode": "0x606060405260006002556409502f9000600355606060405190810160409081526729a2241af62c00008252676124fee993bc0000602083015267a688906bd8b0000090820152610053906004906003610064565b50341561005f57600080fd5b6100d8565b8280548282559060005260206000209081019282156100ab579160200282015b828111156100ab578251829067ffffffffffffffff16905591602001919060010190610084565b506100b79291506100bb565b5090565b6100d591905b808211156100b757600081556001016100c1565b90565b6103dc806100e76000396000f300606060405236156100965763ffffffff7c0100000000000000000000000000000000000000000000000000000000600035041663100aca4781146101ae578063550b521c146101d357806355ca5a88146101f55780635f7bd479146102145780637c6712f014610227578063814dd0d914610259578063a5757ce81461026c578063cf58bbcc1461027f578063d312846b14610295575b60008054349081018255600160a060020a033316808352600560209081526040808520600254865290915292839020829055917f906faaf913a60f38b5e8f2d6f5b163239bac2d994fa1a5d21751a51587a9405791905190815260200160405180910390a260045460025410801561012c5750600460025481548110151561011a57fe5b90600052602060002090015460005410155b1561013b576002805460010190555b600160a060020a03331660009081526006602052604090205415156101ac5760018054810190819055600160a060020a03331660008181526006602090815260408083208590559382526007905291909120805473ffffffffffffffffffffffffffffffffffffffff191690911790555b005b34156101b957600080fd5b6101c16102a8565b60405190815260200160405180910390f35b34156101de57600080fd5b6101c1600160a060020a03600435166024356102ae565b341561020057600080fd5b6101c1600160a060020a03600435166102cb565b341561021f57600080fd5b6101c16102dd565b341561023257600080fd5b61023d600435610364565b604051600160a060020a03909116815260200160405180910390f35b341561026457600080fd5b6101c161037f565b341561027757600080fd5b6101c1610385565b341561028a57600080fd5b6101c160043561038b565b34156102a057600080fd5b6101c16103aa565b60005481565b600560209081526000928352604080842090915290825290205481565b60066020526000908152604090205481565b600080805b600254811161035e57670de0b6b3a764000060648260025403600a026064016003546005600033600160a060020a0316600160a060020a03168152602001908152602001600020600086815260200190815260200160002054020281151561034657fe5b0481151561035057fe5b0491909101906001016102e2565b50919050565b600760205260009081526040902054600160a060020a031681565b60025481565b60035481565b600480548290811061039957fe5b600091825260209091200154905081565b600154815600a165627a7a72305820b4063124306b9034df914aa49a7d2ddfb552e7318683d870d826f75ff7cc27000029",
  "source": "pragma solidity ^0.4.17;\n\ncontract CrowdvillaTokenSale {\n\n  uint public totalFund;\n  uint public uniqueContributors;\n  uint public currentStretchGoal = 0;\n  uint public recvPerEth = 400 * 10**8;\n  uint[] public stretchGoals = [3 ether, 7 ether, 12 ether];\n\n  mapping (address => mapping (uint => uint)) public contributions;\n  mapping (address => uint) public contributorIndex;\n  mapping (uint => address) public reversedContributorIndex;\n\n  event Contribute(address indexed contributor, uint amount);\n\n  function () public payable {\n    totalFund += msg.value;\n    contributions[msg.sender][currentStretchGoal] = msg.value;\n    Contribute(msg.sender, msg.value);\n    if (currentStretchGoal < stretchGoals.length && totalFund >= stretchGoals[currentStretchGoal])\n      currentStretchGoal++;\n\n    if (contributorIndex[msg.sender]==0) {\n      uniqueContributors++;\n      contributorIndex[msg.sender] = uniqueContributors;\n      reversedContributorIndex[uniqueContributors] = msg.sender;\n    }\n  }\n\n  function getPromisedTokenBalance() public constant returns (uint) {\n    uint balance;\n    for (uint i=0; i<=currentStretchGoal; i++) {\n      balance += (contributions[msg.sender][i] * recvPerEth * (100 + ((currentStretchGoal-i) * 10))/100) / 1 ether;\n    }\n    return balance;\n  }\n\n}\n",
  "sourcePath": "/Users/htan/Documents/workspace/REIDAO/crowdvilla-token-sale/contracts/CrowdvillaTokenSale.sol",
  "schemaVersion": "1.0.0",
  "updatedAt": "2017-10-19T17:36:18.862Z"
}